{
  "_format": "hh-sol-artifact-1",
  "contractName": "RandomIpfsNft",
  "sourceName": "contracts/RandomIpfsNft.sol",
  "abi": [
    {
      "inputs": [
        {
          "internalType": "string",
          "name": "tokenName",
          "type": "string"
        },
        {
          "internalType": "string",
          "name": "tokenSymbol",
          "type": "string"
        },
        {
          "internalType": "address",
          "name": "vrfCoordinator",
          "type": "address"
        },
        {
          "internalType": "uint256",
          "name": "subscriptionId",
          "type": "uint256"
        },
        {
          "internalType": "bytes32",
          "name": "keyHash",
          "type": "bytes32"
        },
        {
          "internalType": "uint32",
          "name": "callbackGasLimit",
          "type": "uint32"
        },
        {
          "internalType": "uint16",
          "name": "requestConfirmations",
          "type": "uint16"
        },
        {
          "internalType": "uint32",
          "name": "numWords",
          "type": "uint32"
        },
        {
          "internalType": "uint256",
          "name": "mintFee",
          "type": "uint256"
        },
        {
          "internalType": "string[3]",
          "name": "tokenUris",
          "type": "string[3]"
        }
      ],
      "stateMutability": "nonpayable",
      "type": "constructor"
    },
    {
      "inputs": [
        {
          "internalType": "address",
          "name": "sender",
          "type": "address"
        },
        {
          "internalType": "uint256",
          "name": "tokenId",
          "type": "uint256"
        },
        {
          "internalType": "address",
          "name": "owner",
          "type": "address"
        }
      ],
      "name": "ERC721IncorrectOwner",
      "type": "error"
    },
    {
      "inputs": [
        {
          "internalType": "address",
          "name": "operator",
          "type": "address"
        },
        {
          "internalType": "uint256",
          "name": "tokenId",
          "type": "uint256"
        }
      ],
      "name": "ERC721InsufficientApproval",
      "type": "error"
    },
    {
      "inputs": [
        {
          "internalType": "address",
          "name": "approver",
          "type": "address"
        }
      ],
      "name": "ERC721InvalidApprover",
      "type": "error"
    },
    {
      "inputs": [
        {
          "internalType": "address",
          "name": "operator",
          "type": "address"
        }
      ],
      "name": "ERC721InvalidOperator",
      "type": "error"
    },
    {
      "inputs": [
        {
          "internalType": "address",
          "name": "owner",
          "type": "address"
        }
      ],
      "name": "ERC721InvalidOwner",
      "type": "error"
    },
    {
      "inputs": [
        {
          "internalType": "address",
          "name": "receiver",
          "type": "address"
        }
      ],
      "name": "ERC721InvalidReceiver",
      "type": "error"
    },
    {
      "inputs": [
        {
          "internalType": "address",
          "name": "sender",
          "type": "address"
        }
      ],
      "name": "ERC721InvalidSender",
      "type": "error"
    },
    {
      "inputs": [
        {
          "internalType": "uint256",
          "name": "tokenId",
          "type": "uint256"
        }
      ],
      "name": "ERC721NonexistentToken",
      "type": "error"
    },
    {
      "inputs": [
        {
          "internalType": "address",
          "name": "have",
          "type": "address"
        },
        {
          "internalType": "address",
          "name": "want",
          "type": "address"
        }
      ],
      "name": "OnlyCoordinatorCanFulfill",
      "type": "error"
    },
    {
      "inputs": [
        {
          "internalType": "address",
          "name": "have",
          "type": "address"
        },
        {
          "internalType": "address",
          "name": "owner",
          "type": "address"
        },
        {
          "internalType": "address",
          "name": "coordinator",
          "type": "address"
        }
      ],
      "name": "OnlyOwnerOrCoordinator",
      "type": "error"
    },
    {
      "inputs": [],
      "name": "RandomIpfsNft__NotEnoughFee",
      "type": "error"
    },
    {
      "inputs": [
        {
          "internalType": "uint256",
          "name": "randomNum",
          "type": "uint256"
        }
      ],
      "name": "RandomIpfsNft__RangeOutOfBounds",
      "type": "error"
    },
    {
      "inputs": [],
      "name": "RandomIpfsNft__WithdrawFailed",
      "type": "error"
    },
    {
      "inputs": [
        {
          "internalType": "address",
          "name": "sender",
          "type": "address"
        }
      ],
      "name": "RandomIpfsNft__WithdrawerNotOwner",
      "type": "error"
    },
    {
      "inputs": [],
      "name": "ZeroAddress",
      "type": "error"
    },
    {
      "anonymous": false,
      "inputs": [
        {
          "indexed": true,
          "internalType": "address",
          "name": "owner",
          "type": "address"
        },
        {
          "indexed": true,
          "internalType": "address",
          "name": "approved",
          "type": "address"
        },
        {
          "indexed": true,
          "internalType": "uint256",
          "name": "tokenId",
          "type": "uint256"
        }
      ],
      "name": "Approval",
      "type": "event"
    },
    {
      "anonymous": false,
      "inputs": [
        {
          "indexed": true,
          "internalType": "address",
          "name": "owner",
          "type": "address"
        },
        {
          "indexed": true,
          "internalType": "address",
          "name": "operator",
          "type": "address"
        },
        {
          "indexed": false,
          "internalType": "bool",
          "name": "approved",
          "type": "bool"
        }
      ],
      "name": "ApprovalForAll",
      "type": "event"
    },
    {
      "anonymous": false,
      "inputs": [
        {
          "indexed": false,
          "internalType": "uint256",
          "name": "_fromTokenId",
          "type": "uint256"
        },
        {
          "indexed": false,
          "internalType": "uint256",
          "name": "_toTokenId",
          "type": "uint256"
        }
      ],
      "name": "BatchMetadataUpdate",
      "type": "event"
    },
    {
      "anonymous": false,
      "inputs": [
        {
          "indexed": false,
          "internalType": "address",
          "name": "vrfCoordinator",
          "type": "address"
        }
      ],
      "name": "CoordinatorSet",
      "type": "event"
    },
    {
      "anonymous": false,
      "inputs": [
        {
          "indexed": false,
          "internalType": "uint256",
          "name": "_tokenId",
          "type": "uint256"
        }
      ],
      "name": "MetadataUpdate",
      "type": "event"
    },
    {
      "anonymous": false,
      "inputs": [
        {
          "indexed": true,
          "internalType": "uint256",
          "name": "requestId",
          "type": "uint256"
        },
        {
          "indexed": true,
          "internalType": "address",
          "name": "minter",
          "type": "address"
        },
        {
          "indexed": true,
          "internalType": "uint256",
          "name": "tokenId",
          "type": "uint256"
        },
        {
          "indexed": false,
          "internalType": "enum RandomIpfsNft.Breed",
          "name": "breed",
          "type": "uint8"
        },
        {
          "indexed": false,
          "internalType": "uint256[]",
          "name": "rawResults",
          "type": "uint256[]"
        }
      ],
      "name": "NftFulfilled",
      "type": "event"
    },
    {
      "anonymous": false,
      "inputs": [
        {
          "indexed": true,
          "internalType": "uint256",
          "name": "tokenId",
          "type": "uint256"
        },
        {
          "indexed": true,
          "internalType": "uint256",
          "name": "owner",
          "type": "uint256"
        }
      ],
      "name": "NftMinted",
      "type": "event"
    },
    {
      "anonymous": false,
      "inputs": [
        {
          "indexed": true,
          "internalType": "uint256",
          "name": "requestId",
          "type": "uint256"
        },
        {
          "indexed": true,
          "internalType": "address",
          "name": "sender",
          "type": "address"
        }
      ],
      "name": "NftRequested",
      "type": "event"
    },
    {
      "anonymous": false,
      "inputs": [
        {
          "indexed": true,
          "internalType": "address",
          "name": "from",
          "type": "address"
        },
        {
          "indexed": true,
          "internalType": "address",
          "name": "to",
          "type": "address"
        }
      ],
      "name": "OwnershipTransferRequested",
      "type": "event"
    },
    {
      "anonymous": false,
      "inputs": [
        {
          "indexed": true,
          "internalType": "address",
          "name": "from",
          "type": "address"
        },
        {
          "indexed": true,
          "internalType": "address",
          "name": "to",
          "type": "address"
        }
      ],
      "name": "OwnershipTransferred",
      "type": "event"
    },
    {
      "anonymous": false,
      "inputs": [
        {
          "indexed": true,
          "internalType": "address",
          "name": "from",
          "type": "address"
        },
        {
          "indexed": true,
          "internalType": "address",
          "name": "to",
          "type": "address"
        },
        {
          "indexed": true,
          "internalType": "uint256",
          "name": "tokenId",
          "type": "uint256"
        }
      ],
      "name": "Transfer",
      "type": "event"
    },
    {
      "inputs": [],
      "name": "acceptOwnership",
      "outputs": [],
      "stateMutability": "nonpayable",
      "type": "function"
    },
    {
      "inputs": [
        {
          "internalType": "address",
          "name": "to",
          "type": "address"
        },
        {
          "internalType": "uint256",
          "name": "tokenId",
          "type": "uint256"
        }
      ],
      "name": "approve",
      "outputs": [],
      "stateMutability": "nonpayable",
      "type": "function"
    },
    {
      "inputs": [
        {
          "internalType": "address",
          "name": "owner",
          "type": "address"
        }
      ],
      "name": "balanceOf",
      "outputs": [
        {
          "internalType": "uint256",
          "name": "",
          "type": "uint256"
        }
      ],
      "stateMutability": "view",
      "type": "function"
    },
    {
      "inputs": [
        {
          "internalType": "uint256",
          "name": "tokenId",
          "type": "uint256"
        }
      ],
      "name": "getApproved",
      "outputs": [
        {
          "internalType": "address",
          "name": "",
          "type": "address"
        }
      ],
      "stateMutability": "view",
      "type": "function"
    },
    {
      "inputs": [],
      "name": "getCallbackGasLimit",
      "outputs": [
        {
          "internalType": "uint32",
          "name": "result",
          "type": "uint32"
        }
      ],
      "stateMutability": "view",
      "type": "function"
    },
    {
      "inputs": [],
      "name": "getChanceArray",
      "outputs": [
        {
          "internalType": "uint256[3]",
          "name": "chanceArray",
          "type": "uint256[3]"
        }
      ],
      "stateMutability": "pure",
      "type": "function"
    },
    {
      "inputs": [],
      "name": "getKeyHash",
      "outputs": [
        {
          "internalType": "bytes32",
          "name": "result",
          "type": "bytes32"
        }
      ],
      "stateMutability": "view",
      "type": "function"
    },
    {
      "inputs": [],
      "name": "getMintFee",
      "outputs": [
        {
          "internalType": "uint256",
          "name": "result",
          "type": "uint256"
        }
      ],
      "stateMutability": "view",
      "type": "function"
    },
    {
      "inputs": [],
      "name": "getNumWords",
      "outputs": [
        {
          "internalType": "uint32",
          "name": "result",
          "type": "uint32"
        }
      ],
      "stateMutability": "view",
      "type": "function"
    },
    {
      "inputs": [],
      "name": "getRequestConfirmations",
      "outputs": [
        {
          "internalType": "uint16",
          "name": "result",
          "type": "uint16"
        }
      ],
      "stateMutability": "view",
      "type": "function"
    },
    {
      "inputs": [],
      "name": "getSubscriptionId",
      "outputs": [
        {
          "internalType": "uint256",
          "name": "result",
          "type": "uint256"
        }
      ],
      "stateMutability": "view",
      "type": "function"
    },
    {
      "inputs": [
        {
          "internalType": "uint256",
          "name": "randomNum",
          "type": "uint256"
        }
      ],
      "name": "getTier",
      "outputs": [
        {
          "internalType": "uint16",
          "name": "tier",
          "type": "uint16"
        }
      ],
      "stateMutability": "pure",
      "type": "function"
    },
    {
      "inputs": [],
      "name": "getTokenCounter",
      "outputs": [
        {
          "internalType": "uint256",
          "name": "result",
          "type": "uint256"
        }
      ],
      "stateMutability": "view",
      "type": "function"
    },
    {
      "inputs": [
        {
          "internalType": "uint256",
          "name": "requestId",
          "type": "uint256"
        }
      ],
      "name": "getTokenRequester",
      "outputs": [
        {
          "internalType": "address",
          "name": "requester",
          "type": "address"
        }
      ],
      "stateMutability": "view",
      "type": "function"
    },
    {
      "inputs": [
        {
          "internalType": "uint16",
          "name": "tier",
          "type": "uint16"
        }
      ],
      "name": "getTokenUriOfTier",
      "outputs": [
        {
          "internalType": "string",
          "name": "result",
          "type": "string"
        }
      ],
      "stateMutability": "view",
      "type": "function"
    },
    {
      "inputs": [],
      "name": "getTokenUris",
      "outputs": [
        {
          "internalType": "string[]",
          "name": "result",
          "type": "string[]"
        }
      ],
      "stateMutability": "view",
      "type": "function"
    },
    {
      "inputs": [],
      "name": "getVrfCoordinator",
      "outputs": [
        {
          "internalType": "address",
          "name": "result",
          "type": "address"
        }
      ],
      "stateMutability": "view",
      "type": "function"
    },
    {
      "inputs": [
        {
          "internalType": "address",
          "name": "owner",
          "type": "address"
        },
        {
          "internalType": "address",
          "name": "operator",
          "type": "address"
        }
      ],
      "name": "isApprovedForAll",
      "outputs": [
        {
          "internalType": "bool",
          "name": "",
          "type": "bool"
        }
      ],
      "stateMutability": "view",
      "type": "function"
    },
    {
      "inputs": [],
      "name": "name",
      "outputs": [
        {
          "internalType": "string",
          "name": "",
          "type": "string"
        }
      ],
      "stateMutability": "view",
      "type": "function"
    },
    {
      "inputs": [],
      "name": "owner",
      "outputs": [
        {
          "internalType": "address",
          "name": "",
          "type": "address"
        }
      ],
      "stateMutability": "view",
      "type": "function"
    },
    {
      "inputs": [
        {
          "internalType": "uint256",
          "name": "tokenId",
          "type": "uint256"
        }
      ],
      "name": "ownerOf",
      "outputs": [
        {
          "internalType": "address",
          "name": "",
          "type": "address"
        }
      ],
      "stateMutability": "view",
      "type": "function"
    },
    {
      "inputs": [
        {
          "internalType": "uint256",
          "name": "requestId",
          "type": "uint256"
        },
        {
          "internalType": "uint256[]",
          "name": "randomWords",
          "type": "uint256[]"
        }
      ],
      "name": "rawFulfillRandomWords",
      "outputs": [],
      "stateMutability": "nonpayable",
      "type": "function"
    },
    {
      "inputs": [],
      "name": "requestNft",
      "outputs": [
        {
          "internalType": "uint256",
          "name": "requestId",
          "type": "uint256"
        }
      ],
      "stateMutability": "payable",
      "type": "function"
    },
    {
      "inputs": [],
      "name": "s_vrfCoordinator",
      "outputs": [
        {
          "internalType": "contract IVRFCoordinatorV2Plus",
          "name": "",
          "type": "address"
        }
      ],
      "stateMutability": "view",
      "type": "function"
    },
    {
      "inputs": [
        {
          "internalType": "address",
          "name": "from",
          "type": "address"
        },
        {
          "internalType": "address",
          "name": "to",
          "type": "address"
        },
        {
          "internalType": "uint256",
          "name": "tokenId",
          "type": "uint256"
        }
      ],
      "name": "safeTransferFrom",
      "outputs": [],
      "stateMutability": "nonpayable",
      "type": "function"
    },
    {
      "inputs": [
        {
          "internalType": "address",
          "name": "from",
          "type": "address"
        },
        {
          "internalType": "address",
          "name": "to",
          "type": "address"
        },
        {
          "internalType": "uint256",
          "name": "tokenId",
          "type": "uint256"
        },
        {
          "internalType": "bytes",
          "name": "data",
          "type": "bytes"
        }
      ],
      "name": "safeTransferFrom",
      "outputs": [],
      "stateMutability": "nonpayable",
      "type": "function"
    },
    {
      "inputs": [
        {
          "internalType": "address",
          "name": "operator",
          "type": "address"
        },
        {
          "internalType": "bool",
          "name": "approved",
          "type": "bool"
        }
      ],
      "name": "setApprovalForAll",
      "outputs": [],
      "stateMutability": "nonpayable",
      "type": "function"
    },
    {
      "inputs": [
        {
          "internalType": "address",
          "name": "_vrfCoordinator",
          "type": "address"
        }
      ],
      "name": "setCoordinator",
      "outputs": [],
      "stateMutability": "nonpayable",
      "type": "function"
    },
    {
      "inputs": [
        {
          "internalType": "bytes4",
          "name": "interfaceId",
          "type": "bytes4"
        }
      ],
      "name": "supportsInterface",
      "outputs": [
        {
          "internalType": "bool",
          "name": "",
          "type": "bool"
        }
      ],
      "stateMutability": "view",
      "type": "function"
    },
    {
      "inputs": [],
      "name": "symbol",
      "outputs": [
        {
          "internalType": "string",
          "name": "",
          "type": "string"
        }
      ],
      "stateMutability": "view",
      "type": "function"
    },
    {
      "inputs": [
        {
          "internalType": "uint256",
          "name": "tokenId",
          "type": "uint256"
        }
      ],
      "name": "tokenURI",
      "outputs": [
        {
          "internalType": "string",
          "name": "",
          "type": "string"
        }
      ],
      "stateMutability": "view",
      "type": "function"
    },
    {
      "inputs": [
        {
          "internalType": "address",
          "name": "from",
          "type": "address"
        },
        {
          "internalType": "address",
          "name": "to",
          "type": "address"
        },
        {
          "internalType": "uint256",
          "name": "tokenId",
          "type": "uint256"
        }
      ],
      "name": "transferFrom",
      "outputs": [],
      "stateMutability": "nonpayable",
      "type": "function"
    },
    {
      "inputs": [
        {
          "internalType": "address",
          "name": "to",
          "type": "address"
        }
      ],
      "name": "transferOwnership",
      "outputs": [],
      "stateMutability": "nonpayable",
      "type": "function"
    },
    {
      "inputs": [],
      "name": "withdraw",
      "outputs": [
        {
          "internalType": "bool",
          "name": "transferResult",
          "type": "bool"
        }
      ],
      "stateMutability": "nonpayable",
      "type": "function"
    }
  ],
  "bytecode": "0x61016060405234801561001157600080fd5b50604051614f31380380614f318339818101604052810190610033919061083c565b87338060008d8d81600090816100499190610b86565b5080600190816100599190610b86565b505050600073ffffffffffffffffffffffffffffffffffffffff168273ffffffffffffffffffffffffffffffffffffffff16036100cb576040517f08c379a00000000000000000000000000000000000000000000000000000000081526004016100c290610cb5565b60405180910390fd5b81600760006101000a81548173ffffffffffffffffffffffffffffffffffffffff021916908373ffffffffffffffffffffffffffffffffffffffff160217905550600073ffffffffffffffffffffffffffffffffffffffff168173ffffffffffffffffffffffffffffffffffffffff16146101505761014f816102ab60201b60201c565b5b505050600073ffffffffffffffffffffffffffffffffffffffff168173ffffffffffffffffffffffffffffffffffffffff16036101b9576040517fd92e233d00000000000000000000000000000000000000000000000000000000815260040160405180910390fd5b80600960006101000a81548173ffffffffffffffffffffffffffffffffffffffff021916908373ffffffffffffffffffffffffffffffffffffffff160217905550508773ffffffffffffffffffffffffffffffffffffffff1660808173ffffffffffffffffffffffffffffffffffffffff16815250508660a081815250508560c081815250508463ffffffff1660e08163ffffffff16815250508361ffff166101008161ffff16815250508263ffffffff166101208163ffffffff168152505081610140818152505080600a9060036102939291906103d9565b506000600b8190555050505050505050505050610d41565b3373ffffffffffffffffffffffffffffffffffffffff168173ffffffffffffffffffffffffffffffffffffffff1603610319576040517f08c379a000000000000000000000000000000000000000000000000000000000815260040161031090610d21565b60405180910390fd5b80600860006101000a81548173ffffffffffffffffffffffffffffffffffffffff021916908373ffffffffffffffffffffffffffffffffffffffff1602179055508073ffffffffffffffffffffffffffffffffffffffff16600760009054906101000a900473ffffffffffffffffffffffffffffffffffffffff1673ffffffffffffffffffffffffffffffffffffffff167fed8889f560326eb138920d842192f0eb3dd22b4f139c87a2c57538e05bae127860405160405180910390a350565b828054828255906000526020600020908101928215610421579160200282015b828111156104205782518290816104109190610b86565b50916020019190600101906103f9565b5b50905061042e9190610432565b5090565b5b8082111561045257600081816104499190610456565b50600101610433565b5090565b508054610462906109a9565b6000825580601f106104745750610493565b601f0160209004906000526020600020908101906104929190610496565b5b50565b5b808211156104af576000816000905550600101610497565b5090565b6000604051905090565b600080fd5b600080fd5b600080fd5b600080fd5b6000601f19601f8301169050919050565b7f4e487b7100000000000000000000000000000000000000000000000000000000600052604160045260246000fd5b61051a826104d1565b810181811067ffffffffffffffff82111715610539576105386104e2565b5b80604052505050565b600061054c6104b3565b90506105588282610511565b919050565b600067ffffffffffffffff821115610578576105776104e2565b5b610581826104d1565b9050602081019050919050565b60005b838110156105ac578082015181840152602081019050610591565b60008484015250505050565b60006105cb6105c68461055d565b610542565b9050828152602081018484840111156105e7576105e66104cc565b5b6105f284828561058e565b509392505050565b600082601f83011261060f5761060e6104c7565b5b815161061f8482602086016105b8565b91505092915050565b600073ffffffffffffffffffffffffffffffffffffffff82169050919050565b600061065382610628565b9050919050565b61066381610648565b811461066e57600080fd5b50565b6000815190506106808161065a565b92915050565b6000819050919050565b61069981610686565b81146106a457600080fd5b50565b6000815190506106b681610690565b92915050565b6000819050919050565b6106cf816106bc565b81146106da57600080fd5b50565b6000815190506106ec816106c6565b92915050565b600063ffffffff82169050919050565b61070b816106f2565b811461071657600080fd5b50565b60008151905061072881610702565b92915050565b600061ffff82169050919050565b6107458161072e565b811461075057600080fd5b50565b6000815190506107628161073c565b92915050565b600067ffffffffffffffff821115610783576107826104e2565b5b602082029050919050565b600080fd5b60006107a66107a184610768565b610542565b905080602084028301858111156107c0576107bf61078e565b5b835b8181101561080757805167ffffffffffffffff8111156107e5576107e46104c7565b5b8086016107f289826105fa565b855260208501945050506020810190506107c2565b5050509392505050565b600082601f830112610826576108256104c7565b5b6003610833848285610793565b91505092915050565b6000806000806000806000806000806101408b8d0312156108605761085f6104bd565b5b60008b015167ffffffffffffffff81111561087e5761087d6104c2565b5b61088a8d828e016105fa565b9a505060208b015167ffffffffffffffff8111156108ab576108aa6104c2565b5b6108b78d828e016105fa565b99505060406108c88d828e01610671565b98505060606108d98d828e016106a7565b97505060806108ea8d828e016106dd565b96505060a06108fb8d828e01610719565b95505060c061090c8d828e01610753565b94505060e061091d8d828e01610719565b93505061010061092f8d828e016106a7565b9250506101208b015167ffffffffffffffff811115610951576109506104c2565b5b61095d8d828e01610811565b9150509295989b9194979a5092959850565b600081519050919050565b7f4e487b7100000000000000000000000000000000000000000000000000000000600052602260045260246000fd5b600060028204905060018216806109c157607f821691505b6020821081036109d4576109d361097a565b5b50919050565b60008190508160005260206000209050919050565b60006020601f8301049050919050565b600082821b905092915050565b600060088302610a3c7fffffffffffffffffffffffffffffffffffffffffffffffffffffffffffffffff826109ff565b610a4686836109ff565b95508019841693508086168417925050509392505050565b6000819050919050565b6000610a83610a7e610a7984610686565b610a5e565b610686565b9050919050565b6000819050919050565b610a9d83610a68565b610ab1610aa982610a8a565b848454610a0c565b825550505050565b600090565b610ac6610ab9565b610ad1818484610a94565b505050565b5b81811015610af557610aea600082610abe565b600181019050610ad7565b5050565b601f821115610b3a57610b0b816109da565b610b14846109ef565b81016020851015610b23578190505b610b37610b2f856109ef565b830182610ad6565b50505b505050565b600082821c905092915050565b6000610b5d60001984600802610b3f565b1980831691505092915050565b6000610b768383610b4c565b9150826002028217905092915050565b610b8f8261096f565b67ffffffffffffffff811115610ba857610ba76104e2565b5b610bb282546109a9565b610bbd828285610af9565b600060209050601f831160018114610bf05760008415610bde578287015190505b610be88582610b6a565b865550610c50565b601f198416610bfe866109da565b60005b82811015610c2657848901518255600182019150602085019450602081019050610c01565b86831015610c435784890151610c3f601f891682610b4c565b8355505b6001600288020188555050505b505050505050565b600082825260208201905092915050565b7f43616e6e6f7420736574206f776e657220746f207a65726f0000000000000000600082015250565b6000610c9f601883610c58565b9150610caa82610c69565b602082019050919050565b60006020820190508181036000830152610cce81610c92565b9050919050565b7f43616e6e6f74207472616e7366657220746f2073656c66000000000000000000600082015250565b6000610d0b601783610c58565b9150610d1682610cd5565b602082019050919050565b60006020820190508181036000830152610d3a81610cfe565b9050919050565b60805160a05160c05160e05161010051610120516101405161416c610dc5600039600081816110540152611355015260008181610d6c015261149a015260008181610dbf015261144401526000818161146e015261173f015260008181610b7b01526113f801526000818161141e01526117170152600061094e015261416c6000f3fe6080604052600436106101f95760003560e01c806370a082311161010d578063aa152491116100a0578063de8be8e71161006f578063de8be8e71461072c578063e985e9c514610757578063eb612dfb14610794578063f2fde38b146107bf578063fb268a6f146107e8576101f9565b8063aa1524911461067d578063b88d4fde1461069b578063c87b56dd146106c4578063de3d9fb714610701576101f9565b80638ea98117116100dc5780638ea98117146105d557806395d89b41146105fe5780639eccacf614610629578063a22cb46514610654576101f9565b806370a082311461052b57806379ba5097146105685780637a5caab31461057f5780638da5cb5b146105aa576101f9565b8063331bf1251161019057806353a2c19a1161015f57806353a2c19a146104425780635dacf5f41461046d5780635f1b0fd8146104985780636352211e146104c35780636e02007d14610500576101f9565b8063331bf125146103865780633ccfd60b146103b157806342842e0e146103dc5780634f062c5a14610405576101f9565b80630cb4a29d116101cc5780630cb4a29d146102cc5780631310196d146102f75780631fe543e31461033457806323b872dd1461035d576101f9565b806301ffc9a7146101fe57806306fdde031461023b578063081812fc14610266578063095ea7b3146102a3575b600080fd5b34801561020a57600080fd5b5061022560048036038101906102209190612d70565b610825565b6040516102329190612db8565b60405180910390f35b34801561024757600080fd5b50610250610886565b60405161025d9190612e63565b60405180910390f35b34801561027257600080fd5b5061028d60048036038101906102889190612ebb565b610918565b60405161029a9190612f29565b60405180910390f35b3480156102af57600080fd5b506102ca60048036038101906102c59190612f70565b610934565b005b3480156102d857600080fd5b506102e161094a565b6040516102ee9190612f29565b60405180910390f35b34801561030357600080fd5b5061031e60048036038101906103199190612ebb565b610972565b60405161032b9190612f29565b60405180910390f35b34801561034057600080fd5b5061035b60048036038101906103569190613015565b6109af565b005b34801561036957600080fd5b50610384600480360381019061037f9190613075565b610a75565b005b34801561039257600080fd5b5061039b610b77565b6040516103a891906130e1565b60405180910390f35b3480156103bd57600080fd5b506103c6610b9f565b6040516103d39190612db8565b60405180910390f35b3480156103e857600080fd5b5061040360048036038101906103fe9190613075565b610c5f565b005b34801561041157600080fd5b5061042c60048036038101906104279190612ebb565b610c7f565b6040516104399190613119565b60405180910390f35b34801561044e57600080fd5b50610457610d68565b6040516104649190613153565b60405180910390f35b34801561047957600080fd5b50610482610d90565b60405161048f9190613219565b60405180910390f35b3480156104a457600080fd5b506104ad610dbb565b6040516104ba9190613119565b60405180910390f35b3480156104cf57600080fd5b506104ea60048036038101906104e59190612ebb565b610de3565b6040516104f79190612f29565b60405180910390f35b34801561050c57600080fd5b50610515610df5565b6040516105229190613243565b60405180910390f35b34801561053757600080fd5b50610552600480360381019061054d919061325e565b610dff565b60405161055f9190613243565b60405180910390f35b34801561057457600080fd5b5061057d610eb9565b005b34801561058b57600080fd5b50610594611050565b6040516105a19190613243565b60405180910390f35b3480156105b657600080fd5b506105bf611078565b6040516105cc9190612f29565b60405180910390f35b3480156105e157600080fd5b506105fc60048036038101906105f7919061325e565b6110a2565b005b34801561060a57600080fd5b50610613611283565b6040516106209190612e63565b60405180910390f35b34801561063557600080fd5b5061063e611315565b60405161064b91906132ea565b60405180910390f35b34801561066057600080fd5b5061067b60048036038101906106769190613331565b61133b565b005b610685611351565b6040516106929190613243565b60405180910390f35b3480156106a757600080fd5b506106c260048036038101906106bd91906134a1565b6115db565b005b3480156106d057600080fd5b506106eb60048036038101906106e69190612ebb565b611600565b6040516106f89190612e63565b60405180910390f35b34801561070d57600080fd5b50610716611713565b6040516107239190613243565b60405180910390f35b34801561073857600080fd5b5061074161173b565b60405161074e9190613153565b60405180910390f35b34801561076357600080fd5b5061077e60048036038101906107799190613524565b611763565b60405161078b9190612db8565b60405180910390f35b3480156107a057600080fd5b506107a96117f7565b6040516107b69190613670565b60405180910390f35b3480156107cb57600080fd5b506107e660048036038101906107e1919061325e565b6118d0565b005b3480156107f457600080fd5b5061080f600480360381019061080a91906136be565b6118e4565b60405161081c9190612e63565b60405180910390f35b6000634906490660e01b7bffffffffffffffffffffffffffffffffffffffffffffffffffffffff1916827bffffffffffffffffffffffffffffffffffffffffffffffffffffffff1916148061087f575061087e82611998565b5b9050919050565b6060600080546108959061371a565b80601f01602080910402602001604051908101604052809291908181526020018280546108c19061371a565b801561090e5780601f106108e35761010080835404028352916020019161090e565b820191906000526020600020905b8154815290600101906020018083116108f157829003601f168201915b5050505050905090565b600061092382611a7a565b5061092d82611b02565b9050919050565b6109468282610941611b3f565b611b47565b5050565b60007f0000000000000000000000000000000000000000000000000000000000000000905090565b6000600c600083815260200190815260200160002060009054906101000a900473ffffffffffffffffffffffffffffffffffffffff169050919050565b600960009054906101000a900473ffffffffffffffffffffffffffffffffffffffff1673ffffffffffffffffffffffffffffffffffffffff163373ffffffffffffffffffffffffffffffffffffffff1614610a655733600960009054906101000a900473ffffffffffffffffffffffffffffffffffffffff166040517f1cf993f4000000000000000000000000000000000000000000000000000000008152600401610a5c92919061374b565b60405180910390fd5b610a70838383611b59565b505050565b600073ffffffffffffffffffffffffffffffffffffffff168273ffffffffffffffffffffffffffffffffffffffff1603610ae75760006040517f64a0ae92000000000000000000000000000000000000000000000000000000008152600401610ade9190612f29565b60405180910390fd5b6000610afb8383610af6611b3f565b611d27565b90508373ffffffffffffffffffffffffffffffffffffffff168173ffffffffffffffffffffffffffffffffffffffff1614610b71578382826040517f64283d7b000000000000000000000000000000000000000000000000000000008152600401610b6893929190613774565b60405180910390fd5b50505050565b60007f0000000000000000000000000000000000000000000000000000000000000000905090565b6000610ba9611f41565b600047905060003373ffffffffffffffffffffffffffffffffffffffff1682604051610bd4906137dc565b60006040518083038185875af1925050503d8060008114610c11576040519150601f19603f3d011682016040523d82523d6000602084013e610c16565b606091505b505090508015610c2857809250610c5a565b6040517f61746da100000000000000000000000000000000000000000000000000000000815260040160405180910390fd5b505090565b610c7a838383604051806020016040528060008152506115db565b505050565b600080606483610c8f9190613820565b90506000610c9b610d90565b905060008060005b60038161ffff161015610d1c57828510158015610cda5750838161ffff1660038110610cd257610cd1613851565b5b602002015185105b15610ceb5780955060019150610d1c565b838161ffff1660038110610d0257610d01613851565b5b602002015192508080610d14906138af565b915050610ca3565b5080610d5f57836040517f61bcd2e3000000000000000000000000000000000000000000000000000000008152600401610d569190613243565b60405180910390fd5b50505050919050565b60007f0000000000000000000000000000000000000000000000000000000000000000905090565b610d98612ce2565b604051806060016040528060058152602001601e81526020016064815250905090565b60007f0000000000000000000000000000000000000000000000000000000000000000905090565b6000610dee82611a7a565b9050919050565b6000600b54905090565b60008073ffffffffffffffffffffffffffffffffffffffff168273ffffffffffffffffffffffffffffffffffffffff1603610e725760006040517f89c62b64000000000000000000000000000000000000000000000000000000008152600401610e699190612f29565b60405180910390fd5b600360008373ffffffffffffffffffffffffffffffffffffffff1673ffffffffffffffffffffffffffffffffffffffff168152602001908152602001600020549050919050565b600860009054906101000a900473ffffffffffffffffffffffffffffffffffffffff1673ffffffffffffffffffffffffffffffffffffffff163373ffffffffffffffffffffffffffffffffffffffff1614610f49576040517f08c379a0000000000000000000000000000000000000000000000000000000008152600401610f4090613925565b60405180910390fd5b6000600760009054906101000a900473ffffffffffffffffffffffffffffffffffffffff16905033600760006101000a81548173ffffffffffffffffffffffffffffffffffffffff021916908373ffffffffffffffffffffffffffffffffffffffff1602179055506000600860006101000a81548173ffffffffffffffffffffffffffffffffffffffff021916908373ffffffffffffffffffffffffffffffffffffffff1602179055503373ffffffffffffffffffffffffffffffffffffffff168173ffffffffffffffffffffffffffffffffffffffff167f8be0079c531659141344cd1fd0a4f28419497f9722a3daafe3b4186f6b6457e060405160405180910390a350565b60007f0000000000000000000000000000000000000000000000000000000000000000905090565b6000600760009054906101000a900473ffffffffffffffffffffffffffffffffffffffff16905090565b6110aa611078565b73ffffffffffffffffffffffffffffffffffffffff163373ffffffffffffffffffffffffffffffffffffffff16141580156111335750600960009054906101000a900473ffffffffffffffffffffffffffffffffffffffff1673ffffffffffffffffffffffffffffffffffffffff163373ffffffffffffffffffffffffffffffffffffffff1614155b156111a25733611141611078565b600960009054906101000a900473ffffffffffffffffffffffffffffffffffffffff166040517f061db9c100000000000000000000000000000000000000000000000000000000815260040161119993929190613945565b60405180910390fd5b600073ffffffffffffffffffffffffffffffffffffffff168173ffffffffffffffffffffffffffffffffffffffff1603611208576040517fd92e233d00000000000000000000000000000000000000000000000000000000815260040160405180910390fd5b80600960006101000a81548173ffffffffffffffffffffffffffffffffffffffff021916908373ffffffffffffffffffffffffffffffffffffffff1602179055507fd1a6a14209a385a964d036e404cb5cfb71f4000cdb03c9366292430787261be6816040516112789190612f29565b60405180910390a150565b6060600180546112929061371a565b80601f01602080910402602001604051908101604052809291908181526020018280546112be9061371a565b801561130b5780601f106112e05761010080835404028352916020019161130b565b820191906000526020600020905b8154815290600101906020018083116112ee57829003601f168201915b5050505050905090565b600960009054906101000a900473ffffffffffffffffffffffffffffffffffffffff1681565b61134d611346611b3f565b8383611fd3565b5050565b60007f00000000000000000000000000000000000000000000000000000000000000003410156113ad576040517f716a6e1800000000000000000000000000000000000000000000000000000000815260040160405180910390fd5b600960009054906101000a900473ffffffffffffffffffffffffffffffffffffffff1673ffffffffffffffffffffffffffffffffffffffff16639b1c385e6040518060c001604052807f000000000000000000000000000000000000000000000000000000000000000081526020017f000000000000000000000000000000000000000000000000000000000000000081526020017f000000000000000000000000000000000000000000000000000000000000000061ffff1681526020017f000000000000000000000000000000000000000000000000000000000000000063ffffffff1681526020017f000000000000000000000000000000000000000000000000000000000000000063ffffffff1681526020016114de604051806020016040528060001515815250612142565b8152506040518263ffffffff1660e01b81526004016114fd9190613a87565b6020604051808303816000875af115801561151c573d6000803e3d6000fd5b505050506040513d601f19601f820116820180604052508101906115409190613abe565b90503373ffffffffffffffffffffffffffffffffffffffff16817ff873236e6cc0ecc5be1a9a35c95ee5b8d1ac4cc7bfef0cc5060391d6cc98e26b60405160405180910390a333600c600083815260200190815260200160002060006101000a81548173ffffffffffffffffffffffffffffffffffffffff021916908373ffffffffffffffffffffffffffffffffffffffff16021790555090565b6115e6848484610a75565b6115fa6115f1611b3f565b858585856121da565b50505050565b606061160b82611a7a565b50600060066000848152602001908152602001600020805461162c9061371a565b80601f01602080910402602001604051908101604052809291908181526020018280546116589061371a565b80156116a55780601f1061167a576101008083540402835291602001916116a5565b820191906000526020600020905b81548152906001019060200180831161168857829003601f168201915b5050505050905060006116b661238b565b905060008151036116cb57819250505061170e565b6000825111156117005780826040516020016116e8929190613b27565b6040516020818303038152906040529250505061170e565b611709846123a2565b925050505b919050565b60007f0000000000000000000000000000000000000000000000000000000000000000905090565b60007f0000000000000000000000000000000000000000000000000000000000000000905090565b6000600560008473ffffffffffffffffffffffffffffffffffffffff1673ffffffffffffffffffffffffffffffffffffffff16815260200190815260200160002060008373ffffffffffffffffffffffffffffffffffffffff1673ffffffffffffffffffffffffffffffffffffffff16815260200190815260200160002060009054906101000a900460ff16905092915050565b6060600a805480602002602001604051908101604052809291908181526020016000905b828210156118c757838290600052602060002001805461183a9061371a565b80601f01602080910402602001604051908101604052809291908181526020018280546118669061371a565b80156118b35780601f10611888576101008083540402835291602001916118b3565b820191906000526020600020905b81548152906001019060200180831161189657829003601f168201915b50505050508152602001906001019061181b565b50505050905090565b6118d8611f41565b6118e18161240b565b50565b6060600a8261ffff16815481106118fe576118fd613851565b5b9060005260206000200180546119139061371a565b80601f016020809104026020016040519081016040528092919081815260200182805461193f9061371a565b801561198c5780601f106119615761010080835404028352916020019161198c565b820191906000526020600020905b81548152906001019060200180831161196f57829003601f168201915b50505050509050919050565b60007f80ac58cd000000000000000000000000000000000000000000000000000000007bffffffffffffffffffffffffffffffffffffffffffffffffffffffff1916827bffffffffffffffffffffffffffffffffffffffffffffffffffffffff19161480611a6357507f5b5e139f000000000000000000000000000000000000000000000000000000007bffffffffffffffffffffffffffffffffffffffffffffffffffffffff1916827bffffffffffffffffffffffffffffffffffffffffffffffffffffffff1916145b80611a735750611a7282612539565b5b9050919050565b600080611a86836125a3565b9050600073ffffffffffffffffffffffffffffffffffffffff168173ffffffffffffffffffffffffffffffffffffffff1603611af957826040517f7e273289000000000000000000000000000000000000000000000000000000008152600401611af09190613243565b60405180910390fd5b80915050919050565b60006004600083815260200190815260200160002060009054906101000a900473ffffffffffffffffffffffffffffffffffffffff169050919050565b600033905090565b611b5483838360016125e0565b505050565b6000600c600085815260200190815260200160002060009054906101000a900473ffffffffffffffffffffffffffffffffffffffff169050600083836000818110611ba757611ba6613851565b5b9050602002013590506000600b5490506000611bc283610c7f565b905060008161ffff166002811115611bdd57611bdc613b4b565b5b9050611be985846127a5565b611caf83600a836002811115611c0257611c01613b4b565b5b61ffff1681548110611c1757611c16613851565b5b906000526020600020018054611c2c9061371a565b80601f0160208091040260200160405190810160405280929190818152602001828054611c589061371a565b8015611ca55780601f10611c7a57610100808354040283529160200191611ca5565b820191906000526020600020905b815481529060010190602001808311611c8857829003601f168201915b50505050506127c3565b6001600b6000828254611cc29190613b7a565b92505081905550828573ffffffffffffffffffffffffffffffffffffffff16897fd4585f05e12dd104407e3c333e5039b789cc106fa3088c40dfe67a3116fad79b848b8b604051611d1593929190613c71565b60405180910390a45050505050505050565b600080611d33846125a3565b9050600073ffffffffffffffffffffffffffffffffffffffff168373ffffffffffffffffffffffffffffffffffffffff1614611d7557611d7481848661281f565b5b600073ffffffffffffffffffffffffffffffffffffffff168173ffffffffffffffffffffffffffffffffffffffff1614611e0657611db76000856000806125e0565b6001600360008373ffffffffffffffffffffffffffffffffffffffff1673ffffffffffffffffffffffffffffffffffffffff168152602001908152602001600020600082825403925050819055505b600073ffffffffffffffffffffffffffffffffffffffff168573ffffffffffffffffffffffffffffffffffffffff1614611e89576001600360008773ffffffffffffffffffffffffffffffffffffffff1673ffffffffffffffffffffffffffffffffffffffff168152602001908152602001600020600082825401925050819055505b846002600086815260200190815260200160002060006101000a81548173ffffffffffffffffffffffffffffffffffffffff021916908373ffffffffffffffffffffffffffffffffffffffff160217905550838573ffffffffffffffffffffffffffffffffffffffff168273ffffffffffffffffffffffffffffffffffffffff167fddf252ad1be2c89b69c2b068fc378daa952ba7f163c4a11628f55a4df523b3ef60405160405180910390a4809150509392505050565b600760009054906101000a900473ffffffffffffffffffffffffffffffffffffffff1673ffffffffffffffffffffffffffffffffffffffff163373ffffffffffffffffffffffffffffffffffffffff1614611fd1576040517f08c379a0000000000000000000000000000000000000000000000000000000008152600401611fc890613cef565b60405180910390fd5b565b600073ffffffffffffffffffffffffffffffffffffffff168273ffffffffffffffffffffffffffffffffffffffff160361204457816040517f5b08ba1800000000000000000000000000000000000000000000000000000000815260040161203b9190612f29565b60405180910390fd5b80600560008573ffffffffffffffffffffffffffffffffffffffff1673ffffffffffffffffffffffffffffffffffffffff16815260200190815260200160002060008473ffffffffffffffffffffffffffffffffffffffff1673ffffffffffffffffffffffffffffffffffffffff16815260200190815260200160002060006101000a81548160ff0219169083151502179055508173ffffffffffffffffffffffffffffffffffffffff168373ffffffffffffffffffffffffffffffffffffffff167f17307eab39ab6107e8899845ad3d59bd9653f200f220920489ca2b5937696c31836040516121359190612db8565b60405180910390a3505050565b60607f92fd13387c7fe7befbc38d303d6468778fb9731bc4583f17d92989c6fcfdeaaa826040516024016121769190613d3a565b604051602081830303815290604052907bffffffffffffffffffffffffffffffffffffffffffffffffffffffff19166020820180517bffffffffffffffffffffffffffffffffffffffffffffffffffffffff83818316178352505050509050919050565b60008373ffffffffffffffffffffffffffffffffffffffff163b1115612384578273ffffffffffffffffffffffffffffffffffffffff1663150b7a02868685856040518563ffffffff1660e01b81526004016122399493929190613d9f565b6020604051808303816000875af192505050801561227557506040513d601f19601f820116820180604052508101906122729190613e00565b60015b6122f9573d80600081146122a5576040519150601f19603f3d011682016040523d82523d6000602084013e6122aa565b606091505b5060008151036122f157836040517f64a0ae920000000000000000000000000000000000000000000000000000000081526004016122e89190612f29565b60405180910390fd5b805181602001fd5b63150b7a0260e01b7bffffffffffffffffffffffffffffffffffffffffffffffffffffffff1916817bffffffffffffffffffffffffffffffffffffffffffffffffffffffff19161461238257836040517f64a0ae920000000000000000000000000000000000000000000000000000000081526004016123799190612f29565b60405180910390fd5b505b5050505050565b606060405180602001604052806000815250905090565b60606123ad82611a7a565b5060006123b861238b565b905060008151116123d85760405180602001604052806000815250612403565b806123e2846128e3565b6040516020016123f3929190613b27565b6040516020818303038152906040525b915050919050565b3373ffffffffffffffffffffffffffffffffffffffff168173ffffffffffffffffffffffffffffffffffffffff1603612479576040517f08c379a000000000000000000000000000000000000000000000000000000000815260040161247090613e79565b60405180910390fd5b80600860006101000a81548173ffffffffffffffffffffffffffffffffffffffff021916908373ffffffffffffffffffffffffffffffffffffffff1602179055508073ffffffffffffffffffffffffffffffffffffffff16600760009054906101000a900473ffffffffffffffffffffffffffffffffffffffff1673ffffffffffffffffffffffffffffffffffffffff167fed8889f560326eb138920d842192f0eb3dd22b4f139c87a2c57538e05bae127860405160405180910390a350565b60007f01ffc9a7000000000000000000000000000000000000000000000000000000007bffffffffffffffffffffffffffffffffffffffffffffffffffffffff1916827bffffffffffffffffffffffffffffffffffffffffffffffffffffffff1916149050919050565b60006002600083815260200190815260200160002060009054906101000a900473ffffffffffffffffffffffffffffffffffffffff169050919050565b80806126195750600073ffffffffffffffffffffffffffffffffffffffff168273ffffffffffffffffffffffffffffffffffffffff1614155b1561274d57600061262984611a7a565b9050600073ffffffffffffffffffffffffffffffffffffffff168373ffffffffffffffffffffffffffffffffffffffff161415801561269457508273ffffffffffffffffffffffffffffffffffffffff168173ffffffffffffffffffffffffffffffffffffffff1614155b80156126a757506126a58184611763565b155b156126e957826040517fa9fbf51f0000000000000000000000000000000000000000000000000000000081526004016126e09190612f29565b60405180910390fd5b811561274b57838573ffffffffffffffffffffffffffffffffffffffff168273ffffffffffffffffffffffffffffffffffffffff167f8c5be1e5ebec7d5bd14f71427d1e84f3dd0314c0f7b2291e5b200ac8c7c3b92560405160405180910390a45b505b836004600085815260200190815260200160002060006101000a81548173ffffffffffffffffffffffffffffffffffffffff021916908373ffffffffffffffffffffffffffffffffffffffff16021790555050505050565b6127bf8282604051806020016040528060008152506129b1565b5050565b806006600084815260200190815260200160002090816127e3919061403b565b507ff8e1a15aba9398e019f0b49df1a4fde98ee17ae345cb5f6b5e2c27f5033e8ce7826040516128139190613243565b60405180910390a15050565b61282a8383836129d5565b6128de57600073ffffffffffffffffffffffffffffffffffffffff168373ffffffffffffffffffffffffffffffffffffffff160361289f57806040517f7e2732890000000000000000000000000000000000000000000000000000000081526004016128969190613243565b60405180910390fd5b81816040517f177e802f0000000000000000000000000000000000000000000000000000000081526004016128d592919061410d565b60405180910390fd5b505050565b6060600060016128f284612a96565b01905060008167ffffffffffffffff81111561291157612910613376565b5b6040519080825280601f01601f1916602001820160405280156129435781602001600182028036833780820191505090505b509050600082602001820190505b6001156129a6578080600190039150507f3031323334353637383961626364656600000000000000000000000000000000600a86061a8153600a858161299a576129996137f1565b5b04945060008503612951575b819350505050919050565b6129bb8383612be9565b6129d06129c6611b3f565b60008585856121da565b505050565b60008073ffffffffffffffffffffffffffffffffffffffff168373ffffffffffffffffffffffffffffffffffffffff1614158015612a8d57508273ffffffffffffffffffffffffffffffffffffffff168473ffffffffffffffffffffffffffffffffffffffff161480612a4e5750612a4d8484611763565b5b80612a8c57508273ffffffffffffffffffffffffffffffffffffffff16612a7483611b02565b73ffffffffffffffffffffffffffffffffffffffff16145b5b90509392505050565b600080600090507a184f03e93ff9f4daa797ed6e38ed64bf6a1f0100000000000000008310612af4577a184f03e93ff9f4daa797ed6e38ed64bf6a1f0100000000000000008381612aea57612ae96137f1565b5b0492506040810190505b6d04ee2d6d415b85acef81000000008310612b31576d04ee2d6d415b85acef81000000008381612b2757612b266137f1565b5b0492506020810190505b662386f26fc100008310612b6057662386f26fc100008381612b5657612b556137f1565b5b0492506010810190505b6305f5e1008310612b89576305f5e1008381612b7f57612b7e6137f1565b5b0492506008810190505b6127108310612bae576127108381612ba457612ba36137f1565b5b0492506004810190505b60648310612bd15760648381612bc757612bc66137f1565b5b0492506002810190505b600a8310612be0576001810190505b80915050919050565b600073ffffffffffffffffffffffffffffffffffffffff168273ffffffffffffffffffffffffffffffffffffffff1603612c5b5760006040517f64a0ae92000000000000000000000000000000000000000000000000000000008152600401612c529190612f29565b60405180910390fd5b6000612c6983836000611d27565b9050600073ffffffffffffffffffffffffffffffffffffffff168173ffffffffffffffffffffffffffffffffffffffff1614612cdd5760006040517f73c6ac6e000000000000000000000000000000000000000000000000000000008152600401612cd49190612f29565b60405180910390fd5b505050565b6040518060600160405280600390602082028036833780820191505090505090565b6000604051905090565b600080fd5b600080fd5b60007fffffffff0000000000000000000000000000000000000000000000000000000082169050919050565b612d4d81612d18565b8114612d5857600080fd5b50565b600081359050612d6a81612d44565b92915050565b600060208284031215612d8657612d85612d0e565b5b6000612d9484828501612d5b565b91505092915050565b60008115159050919050565b612db281612d9d565b82525050565b6000602082019050612dcd6000830184612da9565b92915050565b600081519050919050565b600082825260208201905092915050565b60005b83811015612e0d578082015181840152602081019050612df2565b60008484015250505050565b6000601f19601f8301169050919050565b6000612e3582612dd3565b612e3f8185612dde565b9350612e4f818560208601612def565b612e5881612e19565b840191505092915050565b60006020820190508181036000830152612e7d8184612e2a565b905092915050565b6000819050919050565b612e9881612e85565b8114612ea357600080fd5b50565b600081359050612eb581612e8f565b92915050565b600060208284031215612ed157612ed0612d0e565b5b6000612edf84828501612ea6565b91505092915050565b600073ffffffffffffffffffffffffffffffffffffffff82169050919050565b6000612f1382612ee8565b9050919050565b612f2381612f08565b82525050565b6000602082019050612f3e6000830184612f1a565b92915050565b612f4d81612f08565b8114612f5857600080fd5b50565b600081359050612f6a81612f44565b92915050565b60008060408385031215612f8757612f86612d0e565b5b6000612f9585828601612f5b565b9250506020612fa685828601612ea6565b9150509250929050565b600080fd5b600080fd5b600080fd5b60008083601f840112612fd557612fd4612fb0565b5b8235905067ffffffffffffffff811115612ff257612ff1612fb5565b5b60208301915083602082028301111561300e5761300d612fba565b5b9250929050565b60008060006040848603121561302e5761302d612d0e565b5b600061303c86828701612ea6565b935050602084013567ffffffffffffffff81111561305d5761305c612d13565b5b61306986828701612fbf565b92509250509250925092565b60008060006060848603121561308e5761308d612d0e565b5b600061309c86828701612f5b565b93505060206130ad86828701612f5b565b92505060406130be86828701612ea6565b9150509250925092565b6000819050919050565b6130db816130c8565b82525050565b60006020820190506130f660008301846130d2565b92915050565b600061ffff82169050919050565b613113816130fc565b82525050565b600060208201905061312e600083018461310a565b92915050565b600063ffffffff82169050919050565b61314d81613134565b82525050565b60006020820190506131686000830184613144565b92915050565b600060039050919050565b600081905092915050565b6000819050919050565b61319781612e85565b82525050565b60006131a9838361318e565b60208301905092915050565b6000602082019050919050565b6131cb8161316e565b6131d58184613179565b92506131e082613184565b8060005b838110156132115781516131f8878261319d565b9650613203836131b5565b9250506001810190506131e4565b505050505050565b600060608201905061322e60008301846131c2565b92915050565b61323d81612e85565b82525050565b60006020820190506132586000830184613234565b92915050565b60006020828403121561327457613273612d0e565b5b600061328284828501612f5b565b91505092915050565b6000819050919050565b60006132b06132ab6132a684612ee8565b61328b565b612ee8565b9050919050565b60006132c282613295565b9050919050565b60006132d4826132b7565b9050919050565b6132e4816132c9565b82525050565b60006020820190506132ff60008301846132db565b92915050565b61330e81612d9d565b811461331957600080fd5b50565b60008135905061332b81613305565b92915050565b6000806040838503121561334857613347612d0e565b5b600061335685828601612f5b565b92505060206133678582860161331c565b9150509250929050565b600080fd5b7f4e487b7100000000000000000000000000000000000000000000000000000000600052604160045260246000fd5b6133ae82612e19565b810181811067ffffffffffffffff821117156133cd576133cc613376565b5b80604052505050565b60006133e0612d04565b90506133ec82826133a5565b919050565b600067ffffffffffffffff82111561340c5761340b613376565b5b61341582612e19565b9050602081019050919050565b82818337600083830152505050565b600061344461343f846133f1565b6133d6565b9050828152602081018484840111156134605761345f613371565b5b61346b848285613422565b509392505050565b600082601f83011261348857613487612fb0565b5b8135613498848260208601613431565b91505092915050565b600080600080608085870312156134bb576134ba612d0e565b5b60006134c987828801612f5b565b94505060206134da87828801612f5b565b93505060406134eb87828801612ea6565b925050606085013567ffffffffffffffff81111561350c5761350b612d13565b5b61351887828801613473565b91505092959194509250565b6000806040838503121561353b5761353a612d0e565b5b600061354985828601612f5b565b925050602061355a85828601612f5b565b9150509250929050565b600081519050919050565b600082825260208201905092915050565b6000819050602082019050919050565b600082825260208201905092915050565b60006135ac82612dd3565b6135b68185613590565b93506135c6818560208601612def565b6135cf81612e19565b840191505092915050565b60006135e683836135a1565b905092915050565b6000602082019050919050565b600061360682613564565b613610818561356f565b93508360208202850161362285613580565b8060005b8581101561365e578484038952815161363f85826135da565b945061364a836135ee565b925060208a01995050600181019050613626565b50829750879550505050505092915050565b6000602082019050818103600083015261368a81846135fb565b905092915050565b61369b816130fc565b81146136a657600080fd5b50565b6000813590506136b881613692565b92915050565b6000602082840312156136d4576136d3612d0e565b5b60006136e2848285016136a9565b91505092915050565b7f4e487b7100000000000000000000000000000000000000000000000000000000600052602260045260246000fd5b6000600282049050600182168061373257607f821691505b602082108103613745576137446136eb565b5b50919050565b60006040820190506137606000830185612f1a565b61376d6020830184612f1a565b9392505050565b60006060820190506137896000830186612f1a565b6137966020830185613234565b6137a36040830184612f1a565b949350505050565b600081905092915050565b50565b60006137c66000836137ab565b91506137d1826137b6565b600082019050919050565b60006137e7826137b9565b9150819050919050565b7f4e487b7100000000000000000000000000000000000000000000000000000000600052601260045260246000fd5b600061382b82612e85565b915061383683612e85565b925082613846576138456137f1565b5b828206905092915050565b7f4e487b7100000000000000000000000000000000000000000000000000000000600052603260045260246000fd5b7f4e487b7100000000000000000000000000000000000000000000000000000000600052601160045260246000fd5b60006138ba826130fc565b915061ffff82036138ce576138cd613880565b5b600182019050919050565b7f4d7573742062652070726f706f736564206f776e657200000000000000000000600082015250565b600061390f601683612dde565b915061391a826138d9565b602082019050919050565b6000602082019050818103600083015261393e81613902565b9050919050565b600060608201905061395a6000830186612f1a565b6139676020830185612f1a565b6139746040830184612f1a565b949350505050565b613985816130c8565b82525050565b613994816130fc565b82525050565b6139a381613134565b82525050565b600081519050919050565b600082825260208201905092915050565b60006139d0826139a9565b6139da81856139b4565b93506139ea818560208601612def565b6139f381612e19565b840191505092915050565b600060c083016000830151613a16600086018261397c565b506020830151613a29602086018261318e565b506040830151613a3c604086018261398b565b506060830151613a4f606086018261399a565b506080830151613a62608086018261399a565b5060a083015184820360a0860152613a7a82826139c5565b9150508091505092915050565b60006020820190508181036000830152613aa181846139fe565b905092915050565b600081519050613ab881612e8f565b92915050565b600060208284031215613ad457613ad3612d0e565b5b6000613ae284828501613aa9565b91505092915050565b600081905092915050565b6000613b0182612dd3565b613b0b8185613aeb565b9350613b1b818560208601612def565b80840191505092915050565b6000613b338285613af6565b9150613b3f8284613af6565b91508190509392505050565b7f4e487b7100000000000000000000000000000000000000000000000000000000600052602160045260246000fd5b6000613b8582612e85565b9150613b9083612e85565b9250828201905080821115613ba857613ba7613880565b5b92915050565b60038110613bbf57613bbe613b4b565b5b50565b6000819050613bd082613bae565b919050565b6000613be082613bc2565b9050919050565b613bf081613bd5565b82525050565b600082825260208201905092915050565b600080fd5b82818337505050565b6000613c218385613bf6565b93507f07ffffffffffffffffffffffffffffffffffffffffffffffffffffffffffffff831115613c5457613c53613c07565b5b602083029250613c65838584613c0c565b82840190509392505050565b6000604082019050613c866000830186613be7565b8181036020830152613c99818486613c15565b9050949350505050565b7f4f6e6c792063616c6c61626c65206279206f776e657200000000000000000000600082015250565b6000613cd9601683612dde565b9150613ce482613ca3565b602082019050919050565b60006020820190508181036000830152613d0881613ccc565b9050919050565b613d1881612d9d565b82525050565b602082016000820151613d346000850182613d0f565b50505050565b6000602082019050613d4f6000830184613d1e565b92915050565b600082825260208201905092915050565b6000613d71826139a9565b613d7b8185613d55565b9350613d8b818560208601612def565b613d9481612e19565b840191505092915050565b6000608082019050613db46000830187612f1a565b613dc16020830186612f1a565b613dce6040830185613234565b8181036060830152613de08184613d66565b905095945050505050565b600081519050613dfa81612d44565b92915050565b600060208284031215613e1657613e15612d0e565b5b6000613e2484828501613deb565b91505092915050565b7f43616e6e6f74207472616e7366657220746f2073656c66000000000000000000600082015250565b6000613e63601783612dde565b9150613e6e82613e2d565b602082019050919050565b60006020820190508181036000830152613e9281613e56565b9050919050565b60008190508160005260206000209050919050565b60006020601f8301049050919050565b600082821b905092915050565b600060088302613efb7fffffffffffffffffffffffffffffffffffffffffffffffffffffffffffffffff82613ebe565b613f058683613ebe565b95508019841693508086168417925050509392505050565b6000613f38613f33613f2e84612e85565b61328b565b612e85565b9050919050565b6000819050919050565b613f5283613f1d565b613f66613f5e82613f3f565b848454613ecb565b825550505050565b600090565b613f7b613f6e565b613f86818484613f49565b505050565b5b81811015613faa57613f9f600082613f73565b600181019050613f8c565b5050565b601f821115613fef57613fc081613e99565b613fc984613eae565b81016020851015613fd8578190505b613fec613fe485613eae565b830182613f8b565b50505b505050565b600082821c905092915050565b600061401260001984600802613ff4565b1980831691505092915050565b600061402b8383614001565b9150826002028217905092915050565b61404482612dd3565b67ffffffffffffffff81111561405d5761405c613376565b5b614067825461371a565b614072828285613fae565b600060209050601f8311600181146140a55760008415614093578287015190505b61409d858261401f565b865550614105565b601f1984166140b386613e99565b60005b828110156140db578489015182556001820191506020850194506020810190506140b6565b868310156140f857848901516140f4601f891682614001565b8355505b6001600288020188555050505b505050505050565b60006040820190506141226000830185612f1a565b61412f6020830184613234565b939250505056fea2646970667358221220b699a12d390c382eb7608e15baad3477fc87956f2d42d22244192506a73533b164736f6c634300081b0033",
  "linkReferences": {},
  "deployedLinkReferences": {}
}